:020000040800F2
:10000000A80A002099010008AD0C0008870C000820
:10001000A90C0008750500089914000800000000EC
:10002000000000000000000000000000390E000881
:100030007905000800000000210D0008450F0008A8
:10004000B3010008B3010008B3010008B3010008C0
:10005000B3010008B3010008B3010008B3010008B0
:10006000B3010008B3010008B3010008B3010008A0
:10007000B3010008B3010008B3010008B301000890
:10008000B3010008B3010008B3010008B301000880
:10009000B3010008B3010008B3010008B301000870
:1000A000B3010008B3010008B3010008B301000860
:1000B000B3010008B3010008B3010008B301000850
:1000C000B3010008B3010008B3010008B301000840
:1000D000B3010008B50F0008B90F0008B30100080C
:1000E000B3010008B3010008B301000800F002F8F2
:1000F00000F042F80AA090E8000C82448344AAF180
:100100000107DA4501D100F037F8AFF2090EBAE87D
:100110000F0013F0010F18BFFB1A43F0010318473B
:100120000016000020160000103A24BF78C878C1DD
:10013000FAD8520724BF30C830C144BF04680C60ED
:10014000704700000023002400250026103A28BF35
:1001500078C1FBD8520728BF30C148BF0B60704739
:10016000642900F0B980732900F0B781002070473E
:100170001FB51FBD10B510BD00F0CAF91146FFF73D
:10018000F7FF01F00DFA00F0E8F903B4FFF7F2FF12
:1001900003BC01F083F90000094880470948004783
:1001A000FEE7FEE7FEE7FEE7FEE7FEE7FEE7FEE727
:1001B000FEE7FEE704480549054A064B7047000084
:1001C000550F0008ED000008A8040020A80A002030
:1001D000A8060020A8060020704700000FB40449BC
:1001E00010B503AA029800F07DF910BC5DF814FB6D
:1001F000380000200FB41CB5074B06AA7B446946A3
:100200000090059800F03FF90020694600F04EF993
:100210001CBC5DF814FB0000AD0200002DE9F041AC
:100220000E460446002020622046E168884730B32D
:10023000252805D0D4E901219047206A401CF2E727
:10024000E168204600278847050018D0A5F1410045
:10025000192802D820354FF4006732462946204637
:100260002760FFF77DFF40B1012804D0F61D26F07E
:1002700007060836D8E7361DD6E72846DAE7206AAB
:10028000BDE8F08170B50C460546012A05D02878F6
:10029000800600D5EA69002302E0012305E05B1C2B
:1002A000934202D2E05C0028F9D1A869E618C01A8E
:1002B000A861286A184428622846AFF3008004E049
:1002C000D5E9012114F8010B9047B442F8D3284630
:1002D000AFF3008070BD00002DE9F0410646002418
:1002E00010687529314616A510D0AFF3008000289C
:1002F00002DA404213A507E031688A0701D512A54A
:1003000002E0490704D511A5012401E0AFF3008004
:1003100000210A2206F1240709E0B0FBF2FCB0FB41
:10032000F2F302FB1C00303078541846491C0028B8
:10033000F3D123462A463046BDE8F04100F045B8E7
:10034000000000002D0000002B0000002000000035
:1003500030B505460B462A4613F8014B12F8010B3F
:1003600008B1A042F8D01CB1002802D06D1CF1E702
:10037000284630BD4FF0000200B51346944696461D
:10038000203922BFA0E80C50A0E80C50B1F12001A8
:10039000BFF4F7AF090728BFA0E80C5048BF0CC056
:1003A0005DF804EB890028BF40F8042B08BF7047B4
:1003B00048BF20F8022B11F0804F18BF00F8012B26
:1003C000704770477047704770472DE9F0470D46FA
:1003D00099469246044600F124080168880604D52F
:1003E000E06921F01001216000E00120A84201DD58
:1003F000471B00E00027A1697A1902EB0900081ADF
:10040000A0612078C00602D42046AFF30080002609
:1004100008E0D4E901211AF806009047206A401C40
:10042000761C20624E45F4DB2078C0060AD52046B3
:10043000AFF3008006E0D4E9012130209047206A24
:10044000401C2062381EA7F10107F4DC07E0D4E964
:10045000012118F805009047206A401C2062281EE0
:10046000A5F10105F3DC2046AFF3008020780006FB
:1004700002D50220BDE8F0870120FBE701694A1C94
:1004800002610878704700B58FB0CDE901310021D5
:10049000059105497944CDE9031011466846FFF7F7
:1004A000BDFE0FB000BD0000E5FFFFFF0A6802F8C7
:1004B000010B0A60704710B5436913B1AFF30080B8
:1004C00001E0FFF7DFFE012010BD127800F12401EA
:1004D0000A7000224A700122EDE711684FF0FF32E6
:1004E000E9E70000074B70B50D467B44FFF7CBFFF3
:1004F0000446284600F008F810B14FF0FF3070BDF8
:10050000204670BD43100000007B00F08000704763
:10051000754600F02BF8AE4605006946534620F0BC
:100520000700854618B020B5FFF744FEBDE820401F
:100530004FF000064FF000074FF000084FF0000B9F
:1005400021F00701AC46ACE8C009ACE8C009ACE852
:10055000C009ACE8C0098D46704710B50446AFF33A
:1005600000802046BDE81040FFF70FBE00487047EE
:100570004804002000BFFEE77047000010B50024CB
:100580004FF47A7000F0AEFF0EE0214608A0FFF7AE
:1005900025FE4FF4FA7300220BA10CA000F07AFAAA
:1005A00000B110BD601CC4B20A2CEEDB00BFF8E73E
:1005B00074727920726573746F726520256420747B
:1005C000696D6573200D0A004F4B000041542B529A
:1005D0004553544F5245000038B5044601210420CC
:1005E00000F0B0FB1020ADF800008DF803000320F0
:1005F0008DF802006946084800F0B6FA2020ADF8F0
:1006000000006946044800F0AFFA204600F0D6FF2B
:1006100000F024F938BD00000008014030B59FB05B
:1006200004460D462B46224606A101A8FFF7E2FD2F
:100630004FF4FA63002208A101A800F02BFA1FB0C2
:1006400030BD000041542B43574A41503D22257391
:10065000222C2225732200004F4B000030B59FB0A2
:1006600004460D462B46224606A101A8FFF7C2FD0F
:100670004FF4FA73002209A101A800F00BFA1FB091
:1006800030BD000041542B4D515454434F4E4E3D0C
:10069000302C222573222C25642C30004F4B000077
:1006A0002DE9F047A2B082460C4615461E46DDE90C
:1006B0002B892A9F2B46224607A104A88DE8C00358
:1006C000FFF798FD4FF4FA7300220DA104A800F083
:1006D000E1F922B0BDE8F08741542B4D5154544309
:1006E0004F4E4E4346473D302C25642C25642C222A
:1006F0002573222C222573222C25642C25640000CE
:100700004F4B000030B5CBB004460D462B46224679
:1007100006A16846FFF76EFD4FF47A7300220AA126
:10072000684600F0B7F94BB030BD000041542B4D86
:100730005154545055423D302C222573222C2225F1
:1007400073222C312C3000004F4B000010B59EB0AE
:100750000446224606A16846FFF74CFD4FF4FA73A3
:10076000002208A1684600F095F91EB010BD0000F7
:1007700041542B4D5154545355423D302C22257336
:10078000222C31004F4B000070B5CCB004460D4612
:1007900016462B46224607A101A80096FFF72AFD20
:1007A0004FF4FA7300220EA101A800F073F94CB0C7
:1007B00070BD000041542B4D515454555345524384
:1007C00046473D302C312C222573222C22257322C2
:1007D0002C222573222C302C302C222200000000E9
:1007E0004F4B000010B5044624B1012C0AD0022C56
:1007F00018D10FE040F6C4130BA20EA10EA000F01A
:1008000049F910BD40F6C41307A20AA10DA000F0DB
:1008100041F9F6E740F6C41303A206A10CA000F0CC
:1008200039F9EEE70020ECE76E6F206368616E67D0
:10083000650000004F4B000041542B43574D4F447F
:10084000453D310041542B43574D4F44453D320007
:1008500041542B43574D4F44453D330010B51021B3
:10086000054800F00CFA4FF4FA7000F03BFE10213E
:10087000014800F006FA10BD000801409CB0642158
:1008800003A8FFF777FD2EA0FFF7A8FCFFF776FE81
:1008900031A0FFF7A3FC0020FFF7A4FF34A0FFF76F
:1008A0009DFC00BF36A138A0FFF7B8FE0028F9D0A4
:1008B00037A0FFF793FC3AA23CA13EA0FFF764FFEC
:1008C00047A0FFF78BFC4FF47A7000F00BFE00207E
:1008D0002EA2CDE900202DA3024678210290FFF739
:1008E000DFFE43A0FFF77AFC4FF47A7000F0FAFDC8
:1008F00040F25B7144A0FFF7B1FE4EA0FFF76EFC23
:100900004FF47A7000F0EEFD4FA0FFF71FFF4FF499
:100910007A7000F0E7FD53A0FFF760FC0EE042F2B2
:10092000107000F0DFFD53A103A8FFF763FC03A9DB
:1009300045A000F0AAF952A0FFF750FCEFE7000035
:10094000D5FDD4DAC5E4D6C345535038323636B275
:10095000CECAFD0D0A000000BBD6B8B4B3F6B3A7EB
:10096000C4ACC8CFC4A3CABDB3C9B9A60D0A0000A0
:10097000BFAACABCC1ACBDD3776966690D0A0000C5
:1009800031787878787800004641535400000000B0
:10099000BFAACABCC5E4D6C320200D0A00000000CF
:1009A00078787878787878780000000078787878A7
:1009B000787878007878787878787C736563757261
:1009C000656D6F64653D335C2C7369676E6D65742E
:1009D000686F643D686D6163736861317C0000001D
:1009E000C1ACBDD3C5E4D6C3CDEAB3C9200D0A005E
:1009F000CDF8C2E7BBE1BBB0CAB1BCE4C5E4D6C325
:100A0000CDEAB3C9200D0A007878787878782E6915
:100A10006F742D61732D6D7174742E636E2D7368F8
:100A2000616E676861692E616C6979756E63732E9A
:100A3000636F6D00C1ACBDD3B7FECEF1C6F7B3C9CD
:100A4000B9A6200D0A0000002F7878787878782FE2
:100A500078787878782F757365722F757064617403
:100A6000650000000D0A4D515454C5E4D6C3CDEACB
:100A7000B3C9000061697468696E6B65720000003B
:100A80000D0AB7A2CBCDD2BBB8F6CAFDBEDDB0FC15
:100A9000000000002DE9F04106460C4615461F46B1
:100AA0002748B0F800046FF30E002549A1F80004B0
:100AB000324624A1254800F06CFC1CB915B9012070
:100AC000BDE8F081B8B200F00DFD4FF47A7000F08F
:100AD00009FD00201A49B1F80014C1F30E01184AAB
:100AE000505411461AA0FFF779FBB4B1ADB12146BD
:100AF0001348FFF72DFC08B1012000E0002040B9A9
:100B000029460F48FFF724FC08B1012000E000202F
:100B100008B10120D4E70020D2E744B121460848BB
:100B2000FFF716FC08B10120CAE70020C8E72946F4
:100B30000348FFF70DFC08B10120C1E70020BFE723
:100B40004400002025730D0A00000000004400400E
:100B50007265636569766520616E642073656E6495
:100B6000203A2025730000002DE9F04102460025BF
:100B70000026002000230024002791F803C00CF079
:100B80000F0591F803C00CF0100CBCF1000F03D05E
:100B900091F802C04CEA050591F800C0BCF1000FC5
:100BA00031D0146800202BE04FF0010C0CFA00F358
:100BB000B1F800C00CEA03069E4220D183004FF03A
:100BC0000F0C0CFA03F7BC4305FA03FC4CEA0404CF
:100BD00091F803C0BCF1280F06D14FF0010C0CFABC
:100BE00000FCC2F814C00AE091F803C0BCF1480F41
:100BF00005D14FF0010C0CFA00FCC2F810C0401CEB
:100C00000828D1D31460B1F800C0BCF1FF0F34DD67
:100C1000546800202EE000F1080C4FF0010808FA9B
:100C20000CF3B1F800C00CEA03069E4221D1830008
:100C30004FF00F0C0CFA03F7BC4305FA03FC4CEA27
:100C4000040491F803C0BCF1280F05D100F1080C91
:100C500008FA0CF8C2F8148091F803C0BCF1480FF0
:100C600007D100F1080C4FF0010808FA0CF8C2F89F
:100C70001080401C0828CED35460BDE8F08141614B
:100C800070470161704700BFFEE770B504460D462E
:100C9000002629462046FFF735FD4FF47A7000F014
:100CA00021FC0126304670BD00BFFEE77047000002
:100CB00070B5002100230F22C47804B3154C2468BA
:100CC00004F4E064C4F5E064210AC1F10403CA40FD
:100CD000447804FA03F184781440214309010E4C4E
:100CE0000678A155047804F01F050124AC4005786E
:100CF0006D11AD0005F1E025C5F8004109E004786B
:100D000004F01F050124AC40044D0678761145F827
:100D1000264070BD0CED00E000E400E080E100E062
:100D20007047000029B1064AD2690243044BDA61D8
:100D300004E0034AD2698243014BDA617047000044
:100D40000010024029B1064A92690243044B9A619D
:100D500004E0034A92698243014B9A6170470000A4
:100D60000010024030B500210022002400232D4D48
:100D70006D6805F00C0121B1042905D0082923D1A3
:100D800005E0294D056022E0274D05601FE0254D57
:100D90006D6805F47012234D6D6805F480340225EA
:100DA00005EB92421CB9214D554305600BE01D4DEA
:100DB0006D6805F400351DB11C4D5543056002E01A
:100DC000194D5543056002E0174D056000BF00BF97
:100DD000144D6D6805F0F0010909154D6B5C05684F
:100DE000DD4045600F4D6D6805F4E061090A104D66
:100DF0006B5C4568DD4085600A4D6D6805F46051A7
:100E0000C90A0B4D6B5C4568DD40C560054D6D68DA
:100E100005F44041890B074D6B5CC568B5FBF3F5E4
:100E2000056130BD0010024000127A0000093D004B
:100E300018000020280000207047000000BF06496D
:100E4000098801F080010029F9D0C0F30801024AA5
:100E5000121D1180704700000038014010B500F0ED
:100E600001F810BD0CB500200190009033480068D7
:100E700040F480303149086000BF3048006800F419
:100E8000003000900198401C0190009818B901981A
:100E9000B0F5A06FF1D12948006800F4003010B11E
:100EA0000120009001E0002000900098012843D12B
:100EB0002348006840F01000214908600846006897
:100EC00020F0030008600846006840F00200086057
:100ED0001A48406819494860084640684860084612
:100EE000406840F4806048600846406820F47C1008
:100EF00048600846406840F4E810486008460068CA
:100F000040F08070086000BF0C48006800F000707E
:100F10000028F9D00948406820F0030007494860DC
:100F20000846406840F00200486000BF034840683F
:100F300000F00C000828F9D10CBD000000100240A0
:100F40000020024002480068401C014908607047C8
:100F50000000002010B51348006840F0010011495E
:100F6000086008464068104908400E494860084635
:100F700000680E4908400B4908600846006820F4E4
:100F8000802008600846406820F4FE0048604FF466
:100F90001F008860FFF762FF4FF00060044908609F
:100FA00010BD0000001002400000FFF8FFFFF6FE39
:100FB00008ED00E07047000010B540F225515C4894
:100FC00000F022F920B340F22551594800F0F4F81E
:100FD000574800F0D5F9C4B22146564800F0D5F97B
:100FE0005548B0F80004C0F30E0040F2FF318842CB
:100FF0000EDA5149B1F80014C1F30E00411C4E4AFB
:10100000B2F8002461F30E024B49A1F800240C54FD
:1010100040F22441464800F0F7F800287ED04648C8
:10102000B0F8000420F4004000F500404249A1F867
:1010300000043F4800F0A4F9C4B221463D4800F046
:10104000A4F93D48B0F80004C0F30E0040F2FF31AF
:1010500088420EDA3849B1F80014C1F30E00411C81
:10106000354AB2F8002461F30E023349A1F8002496
:101070000C5432A13048FFF76BF908B1012000E0B1
:1010800000203149087000202B49B1F80014C1F349
:101090000E01294A50542DA0FFF7A0F8264931A08F
:1010A000FFF79CF831A12448FFF752F908B101205D
:1010B00000E000203249087032A11F48FFF748F9CC
:1010C00008B1012000E00020334908702C48007866
:1010D00098B11948B0F800046FF30E001649A1F852
:1010E000000401202D49087013482DA109880180B2
:1010F0002A4801782BA0FFF771F82748007868B1DB
:101100000D48B0F800046FF30E000B49A1F800047D
:10111000002022490870084821A100E006E0098863
:1011200001801E4801781FA0FFF758F810BD00008D
:10113000004400400038014044000020434C4F531D
:1011400045440D0A00000000400000207265636500
:10115000697665642061207061636B616765200A50
:10116000000000002573200A00000000616C61721D
:101170006D537769746849734F70656E00000000A5
:1011800032000020616C61726D5377697468497335
:10119000436C6F73650000003100002030000020B8
:1011A000200000000A20BFAAB9D8D7B4CCAC3A209E
:1011B0002564200A0000000010B50022002340F63C
:1011C0006A14A14200D100BF0A1201249440A3B2C4
:1011D000DC43048010BD21B1828942F40052828137
:1011E00004E082894DF6FF731A40828170470246FF
:1011F0000020B1F5007F00D100BF13880B400BB178
:10120000012000E00020704770B502460024002352
:101210000025002040F66A16B14200D100BFC1F39C
:10122000421501F01F03012606FA03F3012D02D136
:101230009689334006E0022D02D1168A334001E040
:10124000968A33400C12012606FA04F416883440BC
:1012500013B10CB1012000E0002070BDF0B50346D1
:10126000002400260025002040F66A17B94200D16C
:1012700000BF1846C1F3421401F01F06012707FA08
:1012800006F5012C01D10C3004E0022C01D1103004
:1012900000E014301AB107682F43076002E00768C6
:1012A000AF430760F0BD00002DE9F04786B005466A
:1012B0000E460024A24600BFA1460027B08900B117
:1012C00000BF2F462C8A4CF6FF700440F088044380
:1012D0002C82AC894EF6F3100440B0883189084363
:1012E000718908430443AC81AC8A4FF6FF40044047
:1012F000B0890443AC8201A8FFF734FD1F48874240
:1013000002D1DDF810A001E0DDF80CA0A88900F4FE
:10131000004040B10AEBCA0000EB0A1031684900F6
:10132000B0FBF1F807E00AEBCA0000EB0A103168E5
:101330008900B0FBF1F86420B8FBF0F0040120094B
:10134000642101FB1089A88900F4004040B13220DB
:1013500000EBC900B0FBF1F000F00700044308E027
:10136000322000EB09106421B0FBF1F000F00F0017
:1013700004432C8106B0BDE8F0870000003801402E
:1013800001468888C0F308007047C1F308028280D4
:1013900070470FB470B586B006460CA8019073E094
:1013A0000B9800785C281CD10B98401C0B9000789F
:1013B0006E2809D072280FD10D213046FFF7E5FFC6
:1013C0000B98401C0B900BE00A213046FFF7DDFF25
:1013D0000B98401C0B9003E00B98401C0B9000BF37
:1013E0004BE00B980078252840D10B98401C0B90BF
:1013F0000078642818D0732833D1019810C8019060
:101400000BE021783046FFF7C0FF00BF8021304657
:10141000FFF7EDFE0028F9D0641C20780028F0D1F9
:101420000B98401C0B9020E0019820C801900A22E4
:1014300002A9284600F083F802AC0BE02178304680
:10144000FFF7A3FF00BF80213046FFF7D0FE002842
:10145000F9D0641C20780028F0D10B98401C0B9028
:1014600003E00B98401C0B9000BF06E00B9810F8AF
:10147000011B0B903046FFF788FF00BF80213046EC
:10148000FFF7B5FE0028F9D00B980078002887D127
:1014900006B070BC5DF814FB00BFFEE700BF7047EC
:1014A0006FF004004FF0E02108610A4800680A4923
:1014B000B0FBF1F0094908700846007800EB4001E4
:1014C000C1EBC0104FF6FF7101EAC000044908806B
:1014D000704700000400002000127A002C00002059
:1014E0002E0000200146114A12884A434FF0E023A3
:1014F0005A6100229A611A46126942F001021A6189
:1015000000BF4FF0E022106900F001021AB100F4B0
:101510008032002AF5D04FF0E022126922F0010259
:101520004FF0E0231A6100229A6170472E000020DC
:1015300010B503460C461846FFF780FC10BDF0B509
:1015400003460D461646002729460A2E03D00020E2
:1015500008702846F0BD33B9302001F8010B002097
:1015600008702846F6E7002B03DA2D2001F8010B5E
:101570005B4242F210720DE093FBF2F404B937B112
:1015800004F1300001F8010B04FB123301270A209B
:1015900092FBF0F2002AEFDC002008702846D9E721
:1015A000FFF77EFF4FF4E13000F066F84FF4E130D2
:1015B000FFF712F801E0FFF761F9FCE710B586B01C
:1015C000044601214804FFF7ADFB01210420FFF789
:1015D000B9FB0420ADF8040003208DF806001820A4
:1015E0008DF8070001A92248FFF7BEFA0820ADF8E0
:1015F000040004208DF8070001A91D48FFF7B4FA84
:1016000026208DF8000000208DF801008DF80200E2
:1016100001208DF803006846FFF74AFB0294002082
:10162000ADF80C00ADF80E00ADF81000ADF81400E8
:101630000C20ADF8120002A90E48FFF735FE01227A
:1016400040F225510B48FFF709FE012240F22551D7
:101650000848FFF703FE012240F224410548FFF746
:10166000FDFD01210348FFF7B6FD06B010BD0000E7
:10167000000801400044004010B586B00446012136
:101680008803FFF75FFB01210420FFF75BFB4FF4AA
:101690000070ADF8140003208DF8160018208DF8A6
:1016A000170005A91C48FFF75FFA4FF48060ADF8FA
:1016B000140004208DF8170005A91748FFF754FA05
:1016C00025208DF8000000208DF801008DF8020023
:1016D00001208DF803006846FFF7EAFA0194002024
:1016E000ADF80800ADF80A00ADF80C00ADF8100038
:1016F0000C20ADF80E0001A90848FFF7D5FD012226
:1017000040F225510548FFF7A9FD01210348FFF7E5
:1017100062FD06B010BD0000000801400038014025
:1017200040170008000000204400000028010008C5
:101730008417000844000020640A000044010008E7
:101740000000000000A24A040000000000000000A9
:101750000102030406070809000000000102030457
:10176000010203040607080902040608000000003D
:101770000000000000000000000000000000000069
:041780000000000065
:04000005080000ED02
:00000001FF
